{
  "contractName": "IPNSRegistry",
  "abi": [
    {
      "anonymous": false,
      "inputs": [
        {
          "indexed": false,
          "internalType": "string",
          "name": "identifier",
          "type": "string"
        },
        {
          "indexed": false,
          "internalType": "string",
          "name": "ipnsName",
          "type": "string"
        }
      ],
      "name": "RecordAdded",
      "type": "event"
    },
    {
      "anonymous": false,
      "inputs": [
        {
          "indexed": false,
          "internalType": "string",
          "name": "identifier",
          "type": "string"
        },
        {
          "indexed": false,
          "internalType": "string",
          "name": "ipnsName",
          "type": "string"
        }
      ],
      "name": "RecordUpdated",
      "type": "event"
    },
    {
      "inputs": [
        {
          "internalType": "string",
          "name": "identifier",
          "type": "string"
        },
        {
          "internalType": "string",
          "name": "ipnsName",
          "type": "string"
        }
      ],
      "name": "addRecord",
      "outputs": [],
      "stateMutability": "nonpayable",
      "type": "function"
    },
    {
      "inputs": [
        {
          "internalType": "string",
          "name": "identifier",
          "type": "string"
        }
      ],
      "name": "getRecord",
      "outputs": [
        {
          "internalType": "string",
          "name": "ipnsName",
          "type": "string"
        },
        {
          "internalType": "uint256",
          "name": "timestamp",
          "type": "uint256"
        },
        {
          "internalType": "bool",
          "name": "exists",
          "type": "bool"
        }
      ],
      "stateMutability": "view",
      "type": "function",
      "constant": true
    },
    {
      "inputs": [],
      "name": "getAllIdentifiers",
      "outputs": [
        {
          "internalType": "string[]",
          "name": "",
          "type": "string[]"
        }
      ],
      "stateMutability": "view",
      "type": "function",
      "constant": true
    },
    {
      "inputs": [],
      "name": "getRecordCount",
      "outputs": [
        {
          "internalType": "uint256",
          "name": "",
          "type": "uint256"
        }
      ],
      "stateMutability": "view",
      "type": "function",
      "constant": true
    }
  ],
  "bytecode": "0x608060405234801561001057600080fd5b5061087a806100206000396000f3fe608060405234801561001057600080fd5b506004361061004c5760003560e01c806311dd8845146100515780635de3ba971461007c578063c959624814610091578063ca267f28146100a6575b600080fd5b61006461005f3660046105b0565b6100bb565b60405161007393929190610722565b60405180910390f35b6100846101b0565b6040516100739190610694565b6100a461009f3660046105eb565b610289565b005b6100ae610490565b60405161007391906107ba565b6060600080600080856040516100d19190610678565b90815260200160405180910390206040518060600160405290816000820180546100fa906107f3565b80601f0160208091040260200160405190810160405280929190818152602001828054610126906107f3565b80156101735780601f1061014857610100808354040283529160200191610173565b820191906000526020600020905b81548152906001019060200180831161015657829003601f168201915b5050509183525050600182015460208083019190915260029092015460ff1615156040918201528251918301519201519097919650945092505050565b60606001805480602002602001604051908101604052809291908181526020016000905b828210156102805783829060005260206000200180546101f3906107f3565b80601f016020809104026020016040519081016040528092919081815260200182805461021f906107f3565b801561026c5780601f106102415761010080835404028352916020019161026c565b820191906000526020600020905b81548152906001019060200180831161024f57829003601f168201915b5050505050815260200190600101906101d4565b50505050905090565b60008251116102b35760405162461bcd60e51b81526004016102aa90610783565b60405180910390fd5b60008151116102d45760405162461bcd60e51b81526004016102aa9061074c565b6000826040516102e49190610678565b9081526040519081900360200190206002015460ff166103f6576001805480820182556000919091528251610340917fb10e2d527612073b26eecdfd717e6a320cf44b4afac2b0732d9fcbe2b7fa0cf601906020850190610496565b5060408051606081018252828152426020820152600181830152905160009061036a908590610678565b90815260200160405180910390206000820151816000019080519060200190610394929190610496565b50602082015160018201556040918201516002909101805460ff1916911515919091179055517fbd0ee5ea7025d9c57d179b2ab864af8addb63b746cb7544d7e152d2f5943212f906103e990849084906106f4565b60405180910390a161048c565b806000836040516104079190610678565b9081526020016040518091039020600001908051906020019061042b929190610496565b504260008360405161043d9190610678565b9081526020016040518091039020600101819055507fa32b92311d4910d53fdddcf93a238419a815906305d579caf8d933aacd39f64082826040516104839291906106f4565b60405180910390a15b5050565b60015490565b8280546104a2906107f3565b90600052602060002090601f0160209004810192826104c4576000855561050a565b82601f106104dd57805160ff191683800117855561050a565b8280016001018555821561050a579182015b8281111561050a5782518255916020019190600101906104ef565b5061051692915061051a565b5090565b5b80821115610516576000815560010161051b565b600082601f83011261053f578081fd5b813567ffffffffffffffff8082111561055a5761055a61082e565b604051601f8301601f19168101602001828111828210171561057e5761057e61082e565b604052828152848301602001861015610595578384fd5b82602086016020830137918201602001929092529392505050565b6000602082840312156105c1578081fd5b813567ffffffffffffffff8111156105d7578182fd5b6105e38482850161052f565b949350505050565b600080604083850312156105fd578081fd5b823567ffffffffffffffff80821115610614578283fd5b6106208683870161052f565b93506020850135915080821115610635578283fd5b506106428582860161052f565b9150509250929050565b600081518084526106648160208601602086016107c3565b601f01601f19169290920160200192915050565b6000825161068a8184602087016107c3565b9190910192915050565b6000602080830181845280855180835260408601915060408482028701019250838701855b828110156106e757603f198886030184526106d585835161064c565b945092850192908501906001016106b9565b5092979650505050505050565b600060408252610707604083018561064c565b8281036020840152610719818561064c565b95945050505050565b600060608252610735606083018661064c565b602083019490945250901515604090910152919050565b60208082526019908201527f49504e53206e616d652063616e6e6f7420626520656d70747900000000000000604082015260600190565b6020808252601a908201527f4964656e7469666965722063616e6e6f7420626520656d707479000000000000604082015260600190565b90815260200190565b60005b838110156107de5781810151838201526020016107c6565b838111156107ed576000848401525b50505050565b60028104600182168061080757607f821691505b6020821081141561082857634e487b7160e01b600052602260045260246000fd5b50919050565b634e487b7160e01b600052604160045260246000fdfea26469706673582212208263a8ed7ba7f8c830c8768fdeb04f731900d2c4bc70918a790f29f3046cf6ef64736f6c63430008000033",
  "immutableReferences": {},
  "source": "// SPDX-License-Identifier: MIT\npragma solidity ^0.8.0;\n\ncontract IPNSRegistry {\n    struct IPNSRecord {\n        string ipnsName;\n        uint256 timestamp;\n        bool exists;\n    }\n\n    // Mapping from identifier to IPNS record\n    mapping(string => IPNSRecord) private records;\n    \n    // Array to keep track of all identifiers\n    string[] private identifiers;\n\n    // Events\n    event RecordAdded(string identifier, string ipnsName);\n    event RecordUpdated(string identifier, string ipnsName);\n\n    // Add or update a record\n    function addRecord(string memory identifier, string memory ipnsName) public {\n        require(bytes(identifier).length > 0, \"Identifier cannot be empty\");\n        require(bytes(ipnsName).length > 0, \"IPNS name cannot be empty\");\n\n        if (!records[identifier].exists) {\n            // New record\n            identifiers.push(identifier);\n            records[identifier] = IPNSRecord(ipnsName, block.timestamp, true);\n            emit RecordAdded(identifier, ipnsName);\n        } else {\n            // Update existing record\n            records[identifier].ipnsName = ipnsName;\n            records[identifier].timestamp = block.timestamp;\n            emit RecordUpdated(identifier, ipnsName);\n        }\n    }\n\n    // Get IPNS name by identifier\n    function getRecord(string memory identifier) public view returns (string memory ipnsName, uint256 timestamp, bool exists) {\n        IPNSRecord memory record = records[identifier];\n        return (record.ipnsName, record.timestamp, record.exists);\n    }\n\n    // Get all identifiers\n    function getAllIdentifiers() public view returns (string[] memory) {\n        return identifiers;\n    }\n\n    // Get total number of records\n    function getRecordCount() public view returns (uint256) {\n        return identifiers.length;\n    }\n} ",
  "sourcePath": "/Users/vedantseth/Documents/torrentchainnew/blockchain/contracts/IPNSRegistry.sol",
  "compiler": {
    "name": "solc",
    "version": "0.8.0+commit.c7dfd78e.Emscripten.clang"
  },
  "schemaVersion": "3.4.16",
  "updatedAt": "2025-06-08T12:43:28.128Z",
  "networkType": "ethereum",
  "devdoc": {
    "kind": "dev",
    "methods": {},
    "version": 1
  },
  "userdoc": {
    "kind": "user",
    "methods": {},
    "version": 1
  }
}